:100000000C94D3000C94F0000C94F0000C94F000CD
:100010000C94F0000C94F0000C94F0000C94F000A0
:100020000C94F0000C94F0000C94F0000C94720C02
:100030000C94F0000C94F0000C94F0000C94F00080
:100040000C94F0000C94F0000C94F0000C94F00070
:100050000C94F0000C947B0B0C94F0000C94F000CA
:100060000C94F0000C94F000010A0E04080408043B
:10007000080F14000F140001000203080B170308F7
:10008000030800101020200101000203080B1703D1
:100090000803080000000000010100030308091420
:1000A00003080207001015252501010000407A1001
:1000B000F35A00A0724E18090010A5D4E80000E819
:1000C0007648170000E40B54020000CA9A3B000077
:1000D00000E1F505000080969800000040420F0006
:1000E0000000A08601000000102700000000E803C7
:1000F000000000006400000000000A000000000092
:100100000100000000002C76D888DC674F0823DF50
:10011000C1DFAE59E1B1B796E5E3E453C63AE65123
:10012000997696E8E6C28426EB898C9B62ED407C4A
:100130006FFCEFBC9C9F40F2BAA56FA5F490055AE6
:100140002AF75C936B6CF9676DC11BFCE0E40D470B
:10015000FEF520E6B500D0ED902E0300943577052E
:100160000080841E080000204E0A000000C80C33E6
:100170003333330F986E12831141EF8D2114893B75
:10018000E65516CFFEE6DB18D1844B381BF77C1DF5
:10019000901DA4BBE424203284725E228100C9F148
:1001A00024ECA1E53D2711241FBECFEFD8E0DEBF30
:1001B000CDBF14E0A0E0B1E0EEE7F1E302C00590AE
:1001C0000D92A63DB107D9F715E0A6EDB4E001C048
:1001D0001D92A834B107E1F70E9494080C94BD1851
:1001E0000C940000CF93DF93EC01009759F0198233
:1001F00018821B821A82049660E071E00E945813F4
:100200001F8E1E8EDF91CF9108950F931F93CF9372
:10021000DF938C01EB0161157105C9F10097B9F10C
:10022000CB0160E071E00E9458138DB79EB70A972A
:100230000FB6F8949EBF0FBE8DBFEDB7FEB73196D7
:10024000ADB7BEB71296DC93CE93119781E091E0E3
:1002500093838283D8018D919C9111979583848398
:1002600012968D919C911397978386830C5F1F4FF5
:10027000118700870E94BE1320E030E08DB79EB743
:100280000A960FB6F8949EBF0FBE8DBF02C02FEF27
:100290003FEFC901DF91CF911F910F910895EF9228
:1002A000FF920F931F93CF93DF938C01EB01CB0150
:1002B0000E94F2000115110509F460C0209709F4AD
:1002C0005DC0F80101900020E9F73197E01BF10BC8
:1002D000B19728F08FEF9FEF9F8F8E8F4FC0C8018F
:1002E00061E171E00E943213BC0184E0E82EF12C40
:1002F000EC0EFD1E00E010E024C00115110531F4E4
:10030000CB010E94EF129983888312C0013011053E
:1003100031F4CB010E94EF129B838A8309C0023023
:10032000110531F4C7014AE150E00E945F131D8EB0
:1003300080E090E061E171E00E943213BC010F5F48
:100340001F4F61157105C9F60330110524F48BEFB9
:100350009FEF9F8F8E8F88819981892B21F48AEF5F
:100360009FEF9F8F8E8F8A819B81892B21F489EF4C
:100370009FEF9F8F8E8F6E8D7F8D02C06FEF7FEF0F
:10038000CB01DF91CF911F910F91FF90EF900895D6
:10039000CF92DF92FF920F931F93CF93DF936C0165
:1003A000DC018C91882331F1D6010D900020E9F712
:1003B0008D01015010400C191D09C0E0D0E014C09F
:1003C000F601EC0FFD1FF0808F2D90E00E940D13C1
:1003D000892B49F4BEE2FB1631F08F2D90E00E948C
:1003E0002113892B39F02196C017D10748F320E05B
:1003F00030E002C02FEF3FEFC901DF91CF911F9195
:100400000F91FF90DF90CF900895CF92DF92EF92FF
:10041000FF920F931F93CF93DF93EC017B016A014F
:1004200089010097D9F0C9010E94C8019E012C5F83
:100430003F4F892B31F0C90163E171E00E945813ED
:1004400007C0C901B80149E150E00E945F131D8E49
:10045000F982E882DB82CA821F8E1E8EDF91CF91E5
:100460001F910F91FF90EF90DF90CF9008952A9801
:100470000E940D042A9A08958FEF0E94370290E09F
:1004800026E0969587952A95E1F781700895FF9269
:100490000F931F93CF93DF938B01F42E2A980E9422
:1004A0000D04E80103C089910E940D049E01201BE8
:1004B0002F15C8F32A9ADF91CF911F910F91FF90CA
:1004C00008951F93DF93CF930F92CDB7DEB7182F08
:1004D00083E589838FEF0E9437028095881F8827E4
:1004E000881F90E0112309F491E0891739F080E525
:1004F000BE016F5F7F4F41E00E9447020F90CF9196
:10050000DF911F910895FF920F931F93CF93DF9375
:10051000162F072FF42E2A980E940D04212F302F1A
:10052000C901EC0110E005C080E00E940D04899330
:100530001F5F1F15C8F32A9ADF91CF911F910F916A
:10054000FF9008950F931F93DF93CF9300D000D0B7
:10055000CDB7DEB781E00E94610288E08E010F5FB7
:100560001F4FB80144E00E94830280E00E946102B4
:10057000C8016DE171E044E050E00E9437139C0136
:1005800080E0232B09F481E00F900F900F900F90E3
:10059000CF91DF911F910F9108952A980E940D0429
:1005A00080E00E940D042A9A089589E00E94CD02FD
:1005B00081700895DF93CF930F92CDB7DEB783E7B5
:1005C00089838DE10E94CD02882339F480E5BE0144
:1005D0006F5F7F4F41E00E9447020F90CF91DF9104
:1005E00008951F93162F2A9880620E940D04812F70
:1005F0000E940D042A9A1F9108958FEF0E943702DE
:10060000682F85FD02C080E0089587E00E94F10216
:1006100081E008951F93CF93DF93EC0187E00E9460
:10062000CD0286FF11C010E080E60E94CD02482F67
:1006300081E6BE010E94830287E10E94CD0280FD17
:1006400003C01F5F133081F787E060E40E94F1026E
:10065000DF91CF911F910895682F833508F062E5EF
:1006600085E00E94F10208951F93CF93DF93182F26
:10067000EB0180E00E94F003219A299A0E94A202D5
:10068000882309F44DC00E94DA0280E06FE70E94DF
:10069000F10281E060E00E94F10282E061E00E94EC
:1006A000F10283E063E00E94F10286E067E00E94CD
:1006B000F10281E160E20E94F102812F0E942C038D
:1006C0008AE2BE0145E00E94470280E3BE0145E0A8
:1006D0000E94470281E00E946102C1E2D1E010E085
:1006E000812F8062BE0144E00E9447021F5F249672
:1006F0001730B1F78CE261E571E044E00E944702F7
:100700008DE265E571E044E00E9447028EE269E512
:1007100071E04BE00E94470280E00E94610281E0AC
:10072000DF91CF911F91089581EE0E9437022998A1
:1007300080E00E94CD02682F80FF04C06E7F80E0C1
:100740000E94F102299A08950F931F93DF93CF938C
:10075000CDB7DEB7A0970FB6F894DEBF0FBECDBF02
:10076000282F792F462F6132C0F48E010F5F1F4F63
:10077000C801622F50E00E9444130E9494032998FC
:1007800087E10E94CD0285FD08C080EAB80140E201
:100790000E944702299A81E001C080E0A0960FB62E
:1007A000F894DEBF0FBECDBFCF91DF911F910F91A7
:1007B000089582EE0E9437028FEF0E943702682F61
:1007C00087E00E94F102299880E00E94CD02682F04
:1007D00080FD04C0616080E00E94F102299A0895C2
:1007E000982F84B1846284B92A9A80E58CBD9130B7
:1007F00049F0913018F0933079F40BC08CB58160DA
:100800008CBD08958CB581608CBD8DB581608DBD2A
:1008100008958DB581608DBD0895239A8EBD0DB468
:1008200007FEFDCF23988EB5089580FF02C05E9A23
:1008300001C05E9881FF02C0419A01C0419882FFC9
:1008400002C0429A01C0429883FF02C0439A0895B1
:10085000439808951F93182F289A82958F700E94AD
:1008600015042898289A812F0E941504289888EC4E
:1008700090E00197F1F71F9108955F980E942A0474
:1008800008955F9A0E942A040895CF93DF93EC01A4
:1008900003C021960E94410488818823D1F7DF910B
:1008A000CF910895613039F0613040F0623029F025
:1008B000633061F407C0805C01C0805F80680E9483
:1008C0003D040895805B80680E943D04089581E0A6
:1008D0000E943D0480E49FE10197F1F7089582E0D2
:1008E0000E943D0480E49FE10197F1F708951F9372
:1008F000CF93DF93569A399A3A9A3B9A209A579A0D
:1009000080E69AEE0197F1F75F98289810E0C0E230
:10091000DEE4289A83E00E9415042898CE0101970E
:10092000F1F71F5F1330A9F7289A82E00E9415049F
:10093000289880EA9FE00197F1F788E20E943D0441
:1009400088E00E943D0481E00E943D0480E49FE134
:100950000197F1F786E00E943D048CE00E943D047F
:10096000DF91CF911F9108950F931F93082F80E07F
:10097000602F0E94520410E080E20E9441041F5F39
:100980001031D1F780E0602F0E9452041F910F9127
:1009900008955B9853980895FC018091F004882392
:1009A00009F47CC08091F104823051F1833009F068
:1009B00054C02091F4043091F5048091F404909196
:1009C000F504232F332780959095907028173907C9
:1009D00009F061C08091F4049091F50490709093B7
:1009E000F5048093F4042091F4043091F50480918F
:1009F000F6049091F704982F8827822B932B29C017
:100A00002091F4043091F5048091F4049091F50460
:100A1000232F332780959095907028173907A1F0E0
:100A20008091F2049091F3048E5E9748A1F58BE0DB
:100A30008093F1048091F4049091F504892F992713
:100A40009093F3048093F2048091F4049091F50460
:100A500090709093F5048093F4048091F104808366
:100A60008091F2049091F304928381838091F40445
:100A70009091F504948383838091F8048583109288
:100A8000F5041092F4041092F3041092F204109200
:100A9000F80481E001C080E01092F0040895982FDE
:100AA0006091DE047091E804671738F18091E904E1
:100AB000681718F58091EE04292F30E04091F90471
:100AC0005091FA04882381F0862F90E0871B9109CA
:100AD00002C0220F331F8A95E2F7422B532B50930B
:100AE000FA044093F90451C0440F551F242B352BB1
:100AF0003093FA042093F90448C07091EA04671710
:100B000038F18091EB04681718F58091EE04292FD5
:100B100030E04091FB045091FC04882381F0862F43
:100B200090E0871B910902C0220F331F8A95E2F7DC
:100B3000422B532B5093FC044093FB0426C0440FDC
:100B4000551F242B352B3093FC042093FB041DC030
:100B50008091DF048330C9F46131B8F06531A8F4C5
:100B6000892F90E0262F30E02151304002C0880FBD
:100B7000991F2A95E2F72091FD043091FE04282B5D
:100B8000392B3093FE042093FD046F5F6093DE04E5
:100B9000089599B18091F004882309F020C29870DB
:100BA0008091DD04882371F58091DA04992321F482
:100BB0008F5F8093DA0413C28823A9F091E09093A9
:100BC000DD049093DB041092DC041092FC0410927C
:100BD000FB041092FA041092F9048FEF8093DE0464
:100BE0009093D904FCC18091D7049091D8042FEF41
:100BF0008F3F920709F4F3C101969093D804809334
:100C0000D704EDC18091DB04882309F452C09923F5
:100C100049F08091D9048F5F8093D9048C3908F40E
:100C20001CC1A6C09091DA04892F8551873048F401
:100C30008091D904843028F0883018F468E670E098
:100C400024C0892F8E53893380F48091D9048E314A
:100C500028F08C3328F469E770E017C08F3028F053
:100C60008F3118F46AE870E010C097529C3048F455
:100C70008091D904873228F0833318F46BE970E04F
:100C800004C01092DD0460E070E08091DD048823F0
:100C900031F08FED94E041E150E00E942913109271
:100CA000DE0481E08093DA041092D9041092DB0410
:100CB000D4C08091DC04882309F4C2C0992309F4CC
:100CC0005EC04091DE049091EC04491799F4809144
:100CD000ED04813079F49091DA048091E40498175E
:100CE00008F446C08091E504891708F441C01092C9
:100CF000ED04B3C02091D9042F5F2093D9048091D3
:100D0000DF04813011F5293000F14B30F0F04F5FF6
:100D10004093EC044150242F30E02B503040322FD0
:100D200022278091F9049091FA04822B932B9093BF
:100D3000FA048093F9048091EA04480F4F5F4093CE
:100D4000EB0487E08093D9041AC02C3908F485C0DD
:100D5000242F30E0892F90E001972817390741F4BC
:100D60008091ED04882321F44F5F4093DE0475C029
:100D70001092DD041092DA041092D9046EC08091B2
:100D8000DF04833049F58091DE04803129F58091BC
:100D9000DA048350863008F04DC09091D904973220
:100DA00060F0933350F41092DC041092FE04109221
:100DB000FD0481E18093DE0441C08AE08093DF047A
:100DC00080E18093EA0480E28093EB048093EC045A
:100DD00099509C3048F514C09091DA048091E00459
:100DE000981780F08091E104891760F02091D90470
:100DF0008091E204281730F08091E304821710F00C
:100E000081E013C08091E4049817A0F08091E5047C
:100E1000891780F09091D9048091E604981750F0DA
:100E20008091E704891730F080E00E944F0510920E
:100E3000DC0404C01092DD041092D90481E005C0E6
:100E4000992331F48091DA048F5F8093DA0405C02E
:100E500081E08093DC048093D9048091DD048823B1
:100E600009F4BDC03091DE048091EC04381709F01C
:100E7000B6C08091ED04882309F0B1C0609164018F
:100E8000709165018091FB049091FC0468177907CB
:100E900069F48091D7049091D8048052934030F443
:100EA0008091D6048F5F8093D60402C01092D6043E
:100EB0002091DF04213031F48091D60481508230BA
:100EC00060F406C02A3049F48091D60480FF05C042
:100ED0001092D8041092D70446C081E08093F004A9
:100EE000223009F53323F9F48091D7049091D80486
:100EF000805B9440B0F4809166019091670190937B
:100F0000FA048093F9047093FC046093FB048091CD
:100F1000F80481608093F8041092D8041092D704EA
:100F200002C01092F0042093F1048091F904909192
:100F3000FA049093F3048093F204223021F4909306
:100F40006701809366018091FB049091FC0490936B
:100F5000F5048093F4048091FD049091FE04909335
:100F6000F7048093F6048091F004882371F1409196
:100F7000FB045091FC0464177507B9F420916601D5
:100F8000309167018091F9049091FA04281739078C
:100F900061F48091D7049091D8048C5D954028F439
:100FA0008091F80481608093F8048091F904909115
:100FB000FA04909367018093660150936501409312
:100FC00064011092D8041092D7041092DD0410929C
:100FD000FC041092FB041092DA041092D904809160
:100FE000F004089589E0809381008FE396E0909368
:100FF00089008093880082E080936F000895AAE7BB
:10100000B0E08C9187608C93ECE7F0E080818064A5
:10101000808380818F7780838C9180688C938C9182
:1010200088608C930895EF92FF920F931F93F82E90
:10103000E92E80918803813021F40E946704109288
:10104000880380E060E00E9452040F2D1E2DC8012D
:101050000E94450480E061E00E945204C80141966C
:101060000E94450480E062E00E945204C80182961A
:101070000E94450480E063E00E945204C801C396C8
:101080000E9445041F910F91FF90EF900895FC017D
:10109000DC010D900020E9F7EA1BEF5E8E2F8695AC
:1010A0000895EF92FF920F931F937C018091880324
:1010B000813021F40E946704109288038701C701E0
:1010C0000E94470860E00E945204C7010E94450444
:1010D00091E1E92EF12CE00EF11EC7010E944708B4
:1010E00061E00E945204C7010E94450482E2E82E9A
:1010F000F12CE00EF11EC7010E94470862E00E9439
:101100005204C7010E9445040D5C1F4FC8010E9494
:10111000470863E00E945204C8010E9445041F91E1
:101120000F91FF90EF9008952F923F924F925F9210
:101130006F927F928F929F92AF92BF92CF92DF92E7
:10114000EF92FF920F931F93CF93DF930E94770448
:101150000E94670480E068E671E00E9434038823FF
:10116000A9F08EE691E00E94470860E00E945204D8
:101170008EE691E00E94450488EE93E020E931E09C
:10118000F9013197F1F70197D9F714C089E791E098
:101190000E94470860E00E94520489E791E00E94A3
:1011A000450488EE93E020E931E0F9013197F1F749
:1011B0000197D9F70E9467040E94A2028823A9F030
:1011C00088E891E00E94470860E00E94520488E8A5
:1011D00091E00E94450488EE93E020E931E0F901B6
:1011E0003197F1F70197D9F714C086E991E00E9491
:1011F000470860E00E94520486E991E00E9445049D
:1012000088EE93E020E931E0F9013197F1F7019799
:10121000D9F70E94C90489E0809381008FE396E0AA
:10122000909389008093880082E080936F000E94F1
:10123000FF077894C0E0D0E004EF11E0E4E1AE2EC7
:10124000E2E0BE2E78E5C72E72E0D72E61E1462E91
:10125000512C4A0C5B1C51E1252E312C2C0C3D1CD1
:1012600041E1842E43E0942E35E5632E33E0732E66
:10127000CD2B19F582E195E00E94F20082E195E024
:1012800061E070E041E050E024E335E00E940502B7
:1012900082E195E064EF71E00E940501F8010190A0
:1012A0000020E9F73197E45FF14084EF91E06E2F81
:1012B0000E94A403C1E0D0E022C082E195E00E9438
:1012C000F20082E195E062E070E041E050E028EA5F
:1012D00031E00E94050282E195E064EF71E00E9436
:1012E0000501F80101900020E9F73197E45FF14032
:1012F00084EF91E06E2F0E94A403C0E0D0E00E9432
:10130000D90384EF91E020E931E0F9013197F1F759
:101310000197D9F70E94A202882389F000D000D05B
:1013200000D0EDB7FEB73196ADB7BEB71296BC92FE
:10133000AE921197D382C2828EEA91E010C000D0A3
:1013400000D000D0EDB7FEB73196ADB7BEB712965C
:10135000BC92AE921197D382C28281EB91E09583C9
:1013600084830E94BE13ADB7BEB716960FB6F8942D
:10137000BEBF0FBEADBF88E592E00197F1F70E94B6
:10138000D5028823F9F000D000D000D0EDB7FEB729
:101390003196ADB7BEB712965C924E9211973382DA
:1013A00022828EEA91E0958384830E94BE1310927C
:1013B0000305ADB7BEB716960FB6F894BEBF0FBE05
:1013C000ADBF05C0809103058F5F809303058091B9
:1013D00003058333E0F000D000D000D0EDB7FEB7B6
:1013E0003196ADB7BEB712965C924E92119733828A
:1013F000228287EB91E0958384830E94BE13ADB770
:10140000BEB716960FB6F894BEBF0FBEADBF0E9412
:101410003C028093010520EAE22E2FE0F22E56C016
:10142000F8940E94D903C7010197F1F70E943C028A
:101430008093010578948091FF04909100050196B6
:10144000909300058093FF04815092402CF01092FD
:1014500000051092FF0446C080E060E00E94520444
:101460008091FF04909100056CE972E04AE050E041
:101470000E9495138DB79EB708970FB6F8949EBF3C
:101480000FBE8DBFEDB7FEB73196ADB7BEB71296A2
:101490001C930E9311978CEB91E093838283809140
:1014A000FF049091000595838483809101058683D4
:1014B00017820E94BE13ADB7BEB718960FB6F89448
:1014C000BEBF0FBEADBFC8010E944504809101059B
:1014D000882309F4A5CF8091FF0490910005892B02
:1014E00009F49ECF80910105882309F47FC000D0C4
:1014F00000D000D0EDB7FEB731968CEB92E0ADB7DF
:10150000BEB712969C938E931197A6ECB1E0B3836D
:10151000A2838FEC91E0958384830E94BE13ADB7C4
:10152000BEB716960FB6F894BEBF0FBEADBF8CE91E
:1015300092E00E940A03109202058CE992E062E1B7
:1015400075E00E944F01892B09F055C08DB79EB7F9
:101550000A970FB6F8949EBF0FBE8DBFEDB7FEB7CA
:101560003196ADB7BEB712961C930E93119786EDC8
:1015700091E0938382838091120590911305958366
:101580008483809114059091150597838683A6E145
:10159000B5E0B187A0870E94BE130F900F900F9007
:1015A0000F90EDB7FEB73196ADB7BEB712969C92CD
:1015B0008E92119773826282158304830E94BE13F8
:1015C00081E0809388032CED35E08DB79EB70696B9
:1015D0000FB6F8949EBF0FBE8DBF40E951E0CA011F
:1015E0000197F1F721503040D1F705C080910205F5
:1015F0008F5F80930205809102058B3500F100D04A
:1016000000D000D0EDB7FEB7319689E893E0ADB7D2
:10161000BEB712969C938E931197AAE7B2E0B3835C
:10162000A28381EE91E0958384830E94BE13ADB7BF
:10163000BEB716960FB6F894BEBF0FBEADBF8CE016
:1016400095E00E94CC04882389F180910F05909148
:10165000100590933305809332056EE375E04AE000
:1016600050E00E94951300D000D000D0EDB7FEB737
:10167000319683E393E0ADB7BEB712969C938E93F9
:101680001197A7E7B3E0B383A2838EE395E0958338
:1016900084830E94BE1381E080938803ADB7BEB7F8
:1016A00016960FB6F894BEBF0FBEADBF809132053F
:1016B0009091330586349105C9F08734910524F45F
:1016C0008534910599F407C08734910539F0823546
:1016D000910561F408C08CEB92E002C089E893E0C8
:1016E0000E945108C5CD84E192E002C080E093E001
:1016F0000E941308BDCD78941F920F920FB60F92DF
:101700001124CF92DF92EF92FF920F931F932F93AA
:101710003F934F935F936F937F938F939F93AF9379
:10172000BF93EF93FF93DF93CF9300D00F92CDB78A
:10173000DEB7C0900805D09009050894C11CD11CE3
:10174000D0920905C09208056091780070917900E7
:1017500080E090E00E94291028E73AE745EA5BE341
:101760000E94530E7B018C0120E030E040E05FE3FB
:101770000E94F90F18164CF4C801B70120E030E0C0
:1017800040E05FE30E94F50D09C060E070E080E09A
:101790009FE3A80197010E94F50D90582AE037EDCC
:1017A00043E25CE30E944D0F9B01AC016093440552
:1017B0007093450580934605909347056091040515
:1017C0007091050580910605909107050E94260EEF
:1017D00060930405709305058093060590930705B3
:1017E00080E8C816D10409F061C0609104057091C9
:1017F0000505809106059091070520E030E040E066
:101800005CE30E94530E9B01AC01209304053093CE
:1018100005054093060550930705F4E3EF2EF5E028
:10182000FF2E44E021E087010E94CE1200E013E089
:1018300000D000D000D0EDB7FEB73196ADB7BEB73F
:1018400012961C930E93119784E493E09383828302
:10185000F582E4820E94BE13FE01319683E0DF012F
:101860001D928A95E9F78FED898383E48A838DB78A
:101870009EB706960FB6F8949EBF0FBE8DBFC801E7
:10188000BF010E944D1381E08093880380E090E0C7
:10189000A0E0B0E08093040590930505A0930605B1
:1018A000B093070510920905109208050F900F904C
:1018B0000F90CF91DF91FF91EF91BF91AF919F91E9
:1018C0008F917F916F915F914F913F912F911F91D8
:1018D0000F91FF90EF90DF90CF900F900FBE0F9081
:1018E0001F90189578941F920F920FB60F921124A3
:1018F0002F933F934F935F936F937F938F939F9318
:10190000AF93BF93EF93FF930E94C90580910A059F
:1019100090910B05019690930B0580930A05019712
:101920009170892B29F480917A00806480937A00E9
:10193000FF91EF91BF91AF919F918F917F916F91A7
:101940005F914F913F912F910F900FBE0F901F907D
:101950001895A0E0B0E0EFEAFCE00C949712DC01EF
:101960002B01FA019C91923008F439C1EB01888176
:10197000823008F433C1943069F4843009F02FC107
:1019800011969C9111978981981709F428C1ADECA3
:10199000B3E025C1843009F421C18230A9F492302A
:1019A00009F01DC19A01AD0188E0EA010990AE017C
:1019B000E90109929E018150C1F7E20189811196E6
:1019C0009C918923818308C1923009F407C1129642
:1019D0002D903C901397EB018A819B811496AD90DA
:1019E000BD90CD90DC901797EC80FD800E811F811B
:1019F0009101281B390BB90137FF04C066277727EF
:101A0000621B730B603271050CF061C01216130675
:101A10006CF537014801062E04C09694879477949C
:101A200067940A94D2F721E030E040E050E004C02F
:101A3000220F331F441F551F6A95D2F721503040A3
:101A4000404050402E213F21402351232115310594
:101A50004105510521F021E030E040E050E07901FE
:101A60008A01E628F728082919293CC0232BD1F13F
:101A7000260E371E35014601062E04C09694879423
:101A8000779467940A94D2F721E030E040E050E088
:101A900004C0220F331F441F551F6A95D2F72150EF
:101AA0003040404050402A213B214C215D212115EE
:101AB00031054105510521F021E030E040E050E0E2
:101AC00059016A01A628B728C828D9280BC0821551
:101AD00093052CF01C01AA24BB24650103C0EE244D
:101AE000FF24870111969C91D20111968C91981731
:101AF00009F445C0992339F0A80197012A193B0937
:101B00004C095D0906C0A60195012E193F09400B3D
:101B1000510B57FD08C01182338222822483358302
:101B2000468357831DC081E08183338222828827C8
:101B30009927DC01821B930BA40BB50B848395833F
:101B4000A683B7830DC0220F331F441F551F248364
:101B50003583468357838281938101979383828360
:101B60002481358146815781DA01C9010197A10994
:101B7000B1098F5F9F4FAF4FBF4328F30BC09183D5
:101B800033822282EA0CFB1C0C1D1D1DE482F582AF
:101B90000683178383E080832481358146815781C2
:101BA00057FF1AC0C901AA2797FDA095BA2F8170C7
:101BB0009070A070B0705695479537952795822BF9
:101BC000932BA42BB52B84839583A683B783828123
:101BD0009381019693838283DF0101C0D201CD01FD
:101BE000CDB7DEB7E2E10C94B312A0E2B0E0EBEFC8
:101BF000FDE00C94A31269837A838B839C832D83ED
:101C00003E834F835887E9E0EE2EF12CEC0EFD1E4B
:101C1000CE010196B7010E94C6118E010F5E1F4FC3
:101C2000CE010596B8010E94C6118A8991E08927E4
:101C30008A8BC701B801AE01475E5F4F0E94A90CB5
:101C40000E94F110A096E6E00C94BF12A0E2B0E072
:101C5000ECE2FEE00C94A31269837A838B839C836D
:101C60002D833E834F835887F9E0EF2EF12CEC0E45
:101C7000FD1ECE010196B7010E94C6118E010F5EB6
:101C80001F4FCE010596B8010E94C611C701B801C9
:101C9000AE01475E5F4F0E94A90C0E94F110A09612
:101CA000E6E00C94BF12A0E2B0E0E9E5FEE00C949F
:101CB000971269837A838B839C832D833E834F8322
:101CC0005887CE010196BE01675F7F4F0E94C61103
:101CD000CE010596BE016F5E7F4F0E94C6119985A9
:101CE000923088F089898230C8F0943019F48230BB
:101CF00051F404C0843029F4923081F48DEC93E0E7
:101D0000C6C0923049F420E09A858A89981321E070
:101D10002A87CE010996BBC0823049F420E09A851B
:101D20008A89981321E02A8BCE014196B0C02D8478
:101D30003E844F8458886D887E888F88988CEE24E6
:101D4000FF248701AA24BB24650140E050E060E045
:101D500070E0E0E0F0E0C10181709070892BE9F063
:101D6000E60CF71C081D191D9A01AB012A0D3B1D3D
:101D70004C1D5D1D80E090E0A0E0B0E0E614F704AB
:101D80000805190520F481E090E0A0E0B0E0BA0178
:101D9000A901480F591F6A1F7B1FAA0CBB1CCC1C32
:101DA000DD1C97FE08C081E090E0A0E0B0E0A82A2A
:101DB000B92ACA2ADB2A3196E032F10549F0660CCD
:101DC000771C881C991C5694479437942794C3CF4A
:101DD000FA85EA892B893C898B859C85280F391FD8
:101DE0002E5F3F4F17C0CA0181709070892B61F040
:101DF00016950795F794E79480E090E0A0E0B0E8AE
:101E0000E82AF92A0A2B1B2B769567955795479553
:101E10002F5F3F4F77FDE7CF0CC0440F551F661F64
:101E2000771F17FD4160EE0CFF1C001F111F215092
:101E30003040403090E0590790E0690790E479071E
:101E400060F32B8F3C8FDB01CA018F779070A070FD
:101E5000B07080349105A105B10561F447FD0AC059
:101E6000E114F1040105110529F0405C5F4F6F4F4B
:101E70007F4F40781A8EFE1711F081E08A8F4D8FC8
:101E80005E8F6F8F78A383E0898FCE0149960E9481
:101E9000F110A096E2E10C94B312A8E1B0E0E3E502
:101EA000FFE00C949F1269837A838B839C832D833C
:101EB0003E834F835887B9E0EB2EF12CEC0EFD1ECC
:101EC000CE010196B7010E94C6118E010F5E1F4F11
:101ED000CE010596B8010E94C6112985223008F46A
:101EE0007EC03989323010F4B8017CC08A859A8965
:101EF00089278A87243011F0223031F4231709F022
:101F00006EC06DEC73E06EC0343039F41D861E86F1
:101F10001F86188A1C861B8604C0323021F484E098
:101F20008987B7015FC02B853C858B899C89281BDD
:101F3000390B3C872B87ED84FE840F851889AD888B
:101F4000BE88CF88D88CEA14FB040C051D0540F42C
:101F5000EE0CFF1C001F111F215030403C872B87C7
:101F600020E030E040E050E080E090E0A0E0B0E42D
:101F700060E070E0EA14FB040C051D0540F0282B1E
:101F8000392B4A2B5B2BEA18FB080C091D09B69567
:101F9000A79597958795EE0CFF1C001F111F6F5F8B
:101FA0007F4F6F31710531F7DA01C9018F7790707A
:101FB000A070B07080349105A105B10561F427FDD2
:101FC0000AC0E114F1040105110529F0205C3F4F1E
:101FD0004F4F5F4F20782D873E874F87588BBE012C
:101FE000675F7F4FCB010E94F1106896EAE00C9486
:101FF000BB12A8E1B0E0EFEFFFE00C94A3126983FD
:102000007A838B839C832D833E834F83588789E01B
:10201000E82EF12CEC0EFD1ECE010196B7010E94B8
:10202000C6118E010F5E1F4FCE010596B8010E94AA
:10203000C6118985823040F08989823028F0C70135
:10204000B8010E943E1201C08FEF6896E6E00C9442
:10205000BF12A8E0B0E0EFE2F0E10C949F127B0128
:102060008C01611571058105910519F482E0898360
:1020700060C083E089838EE1C82ED12CDC82CB82C4
:10208000ED82FE820F831887C801B7010E94A2105B
:10209000FC013197F7FF3BC0222733272E1B3F0B54
:1020A00057016801022E04C0D694C794B794A79430
:1020B0000A94D2F740E050E060E070E081E090E008
:1020C000A0E0B0E004C0880F991FAA1FBB1F2A958B
:1020D000D2F70197A109B1098E219F21A023B12335
:1020E0000097A105B10521F041E050E060E070E00B
:1020F0004A295B296C297D294D835E836F8378870C
:102100008EE190E08E1B9F0B9C838B8312C03097D7
:1021100081F00E2E04C0EE0CFF1C001F111F0A944C
:10212000D2F7ED82FE820F831887CE1ADF0ADC8297
:10213000CB821A82CE0101960E94F1102896EAE025
:102140000C94BB12EF92FF920F931F937B018C01B3
:1021500080E0E81680E0F80681E0080780E01807D4
:1021600088F48FEFE816F1040105110531F028F02D
:1021700088E090E0A0E0B0E017C080E090E0A0E050
:10218000B0E012C080E0E81680E0F80680E00807C2
:1021900081E0180728F088E190E0A0E0B0E004C0FA
:1021A00080E190E0A0E0B0E020E230E040E050E0EC
:1021B000281B390B4A0B5B0B04C016950795F79447
:1021C000E7948A95D2F7F701EB52FC4F8081281BE8
:1021D000310941095109C9011F910F91FF90EF90F9
:1021E0000895DF92EF92FF920F931F93FC01E4801A
:1021F000F58006811781D1808081823048F480E0AB
:1022000090E0A0E1B0E0E82AF92A0A2B1B2BA5C038
:10221000843009F49FC0823021F4EE24FF2487012A
:1022200005C0E114F1040105110519F4E0E0F0E046
:1022300096C0628173819FEF623879070CF05BC0B2
:1022400022E83FEF261B370B2A3131052CF020E026
:1022500030E040E050E02AC0B801A701022E04C0DF
:1022600076956795579547950A94D2F781E090E067
:10227000A0E0B0E004C0880F991FAA1FBB1F2A95D9
:10228000D2F70197A109B1098E219F21A023B12383
:102290000097A105B10521F081E090E0A0E0B0E059
:1022A0009A01AB01282B392B4A2B5B2BDA01C90190
:1022B0008F779070A070B07080349105A105B10542
:1022C00039F427FF09C0205C3F4F4F4F5F4F04C0D8
:1022D000215C3F4F4F4F5F4FE0E0F0E02030A0E047
:1022E0003A07A0E04A07A0E45A0710F0E1E0F0E066
:1022F00079018A0127C06038710564F5FB01E15856
:10230000FF4FD801C7018F779070A070B0708034F4
:102310009105A105B10539F4E7FE0DC080E490E018
:10232000A0E0B0E004C08FE390E0A0E0B0E0E80EF1
:10233000F91E0A1F1B1F17FF05C016950795F79476
:10234000E794319687E016950795F794E7948A9578
:10235000D1F705C0EE24FF248701EFEFF0E06E2FE8
:10236000679566276795902F9F77D794DD24D7943C
:102370008E2F8695492F462B582F5D29B701CA010C
:102380001F910F91FF90EF90DF900895FC01DB010A
:10239000408151812281622F6F7770E0221F2227B6
:1023A000221F9381892F880F822B282F30E0991FBD
:1023B0009927991F11969C93119721153105A9F51D
:1023C000411551056105710511F482E037C082E8BD
:1023D0009FEF13969C938E9312979A01AB0167E03F
:1023E000220F331F441F551F6A95D1F783E08C934A
:1023F0000DC0220F331F441F551F12968D919C91C3
:102400001397019713969C938E931297203080E038
:10241000380780E0480780E4580758F314962D9356
:102420003D934D935C93179708952F3F310579F4B1
:10243000411551056105710519F484E08C930895E7
:1024400064FF03C081E08C9312C01C9210C02F5710
:10245000304013963C932E93129783E08C9387E041
:10246000440F551F661F771F8A95D1F77064149625
:102470004D935D936D937C93179708951F93DC01A3
:10248000FB019C91923008F447C08081823008F4AF
:1024900043C0943051F411961C91843099F5818198
:1024A000682F70E0611B71093FC0843021F09230C9
:1024B00031F48230B9F18181882389F12DC01196E0
:1024C0001C9111978230F1F081811817D9F412967E
:1024D0002D913C911397828193818217930794F0F9
:1024E00028173907BCF014968D919D910D90BC91E1
:1024F000A02D2481358146815781281739074A0745
:102500005B0718F4112341F00AC082179307A40750
:10251000B50740F4112319F061E070E005C06FEFDA
:102520007FEF02C060E070E0CB011F9108952F9211
:102530003F924F925F926F927F928F929F92AF9253
:10254000BF92CF92DF92EF92FF920F931F93CF93A0
:10255000DF93CDB7DEB7CA1BDB0B0FB6F894DEBF37
:102560000FBECDBF09942A88398848885F846E845D
:102570007D848C849B84AA84B984C884DF80EE80A7
:10258000FD800C811B81AA81B981CE0FD11D0FB6B0
:10259000F894DEBF0FBECDBFED010895EF92FF921C
:1025A0000F931F93F22FF02E47FD02C0E4E001C00D
:1025B000E4E1242F332727FD309537FF03C0309502
:1025C00021953F4F4F2D512F0F2FEE2E0E94BF15FB
:1025D0008F2D912F1F910F91FF90EF900895FC0187
:1025E00088279927E89421912032E9F3293010F0C7
:1025F0002E30C8F32B3241F02D3239F4689404C0E8
:102600000E94B613820F911D219120532A30C0F3EE
:102610001EF4909581959F4F0895911106C08053A7
:102620008A5010F0865C06C008959927882708957F
:1026300085FDFBCF80629111F8CF81568A51E0F77A
:1026400008959111F2CF803219F089508550D0F75A
:102650000895FB01DC0102C005900D9241505040ED
:10266000D8F7089542E455E00E946E130895FB01E7
:10267000DC0104C08D910190801921F4415050403B
:10268000C8F7881B990B0895FB01DC0102C001907B
:102690000D9241505040D8F70895FB01DC010D9098
:1026A0000020E9F7119701900D920020E1F70895BD
:1026B000FB01DC0101900D920020E1F70895FB0180
:1026C000DC014150504048F001900D920020C9F7C4
:1026D00001C01D9241505040E0F70895FA01A191C8
:1026E000B081009719F41097E1F0CD01DC01CD0124
:1026F0000D90002011F4C00113C0FB012191222391
:1027000019F02015D9F7F3CFFB012191201519F409
:102710001E92119606C02223C1F70D900020A1F74A
:10272000D001FA01A193B0830895FB019F01E894C1
:102730004230C4F04532B4F44A3029F497FB1EF419
:10274000909581959F4F642F77270E94A918805DEF
:102750008A330CF0895D8193CB010097A1F716F4C1
:102760005DE251931082C9010C940F187AE0979F93
:10277000902D879F802D910D11240895AEE0B0E03B
:10278000E4ECF3E10C94A5120D891E8986E08C839C
:102790001A8309838FEF9FE79E838D839E01275EB7
:1027A0003F4FCE0101966F89788DA9010E94E213F7
:1027B0002F813885020F131FF80110822E96E4E056
:1027C0000C94C112ABE0B0E0E8EEF3E10C94971288
:1027D0003C012B015A01FC0117821682838181FD85
:1027E00003C06FEF7FEFC6C19AE0892E1E010894E7
:1027F000211C311CF3012381F20123FD859123FF6C
:1028000081912F01882309F4B2C1853239F423FD67
:10281000859123FF81912F01853229F490E0B30146
:102820000E941F18E7CF982FFF24EE249924FFE180
:10283000FF15D0F09B3269F09C3228F4903259F0A9
:10284000933291F40EC09D3249F0903369F441E027
:1028500024C052E0F52A84E0F82A28C098E0F92A3A
:1028600025C0E0E1FE2A22C0F7FC29C0892F805351
:102870008A3070F4F6FE05C0989C902C1124980EB6
:1028800015C0E89CE02C1124E80EF0E2FF2A0EC0EF
:102890009E3229F4F6FC6BC140E4F42A07C09C3652
:1028A00019F450E8F52A02C0983649F4F20123FDE4
:1028B000959123FF91912F01992309F0B8CF892F8A
:1028C0008554833018F08052833038F444E050E06F
:1028D000A40EB51E5FE359830FC0933631F09337D2
:1028E00079F0933509F056C020C0F50180818983C5
:1028F00042E050E0A40EB51E610101E010E012C0FC
:10290000F501C080D180F6FC03C06FEF7FEF02C0FD
:10291000692D70E042E050E0A40EB51EC6010E9491
:1029200004188C015FE7F52214C0F501C080D18046
:10293000F6FC03C06FEF7FEF02C0692D70E042E04C
:1029400050E0A40EB51EC6010E94F9178C0150E894
:10295000F52AF3FE07C01AC080E290E0B3010E949E
:102960001F18EA948E2D90E008171907A8F30EC0DF
:10297000F601F7FC8591F7FE81916F0190E0B301BC
:102980000E941F18E110EA94015010400115110532
:1029900079F7EAC0943611F0993669F5F7FE08C068
:1029A000F501208131814281538184E090E00AC0A9
:1029B000F501808191819C01442737FD4095542F7A
:1029C00082E090E0A80EB91E9FE6F92257FF09C0E9
:1029D00050954095309521953F4F4F4F5F4FE0E820
:1029E000FE2ACA01B901A1012AE030E00E944B1879
:1029F000D82ED21840C0953729F41F2D1F7E2AE00B
:102A000030E01DC01F2D197F9F3661F0903720F4F4
:102A1000983509F0ACC00FC0903739F0983709F0FD
:102A2000A6C004C028E030E00AC0106114FD1460A4
:102A300020E130E004C014FD166020E132E017FF11
:102A400008C0F501608171818281938144E050E08A
:102A500008C0F50180819181BC0180E090E042E0F6
:102A600050E0A40EB51EA1010E944B18D82ED2181A
:102A70008FE7F82EF122F6FE0BC05EEFF522D91497
:102A800038F4F4FE07C0F2FC05C08FEEF82202C055
:102A90001D2D01C0192DF4FE0DC0FE01ED0DF11D1F
:102AA0008081803319F499EEF92208C01F5FF2FE8D
:102AB00005C003C08F2D867809F01F5F0F2DF3FC32
:102AC00014C0F0FE0FC01E1510F09D2C0BC09D2CE5
:102AD0009E0C911A1E2D06C080E290E0B3010E9468
:102AE0001F181F5F1E15C0F304C01E1510F4E11A55
:102AF00001C0EE2404FF0FC080E390E0B3010E9408
:102B00001F1802FF1DC001FD03C088E790E00EC042
:102B100088E590E00BC0802F867891F001FF02C01D
:102B20008BE201C080E2F7FC8DE290E0B3010E94ED
:102B30001F1806C080E390E0B3010E941F189A940A
:102B4000D914C0F3DA94F101ED0DF11D808190E00C
:102B5000B3010E941F18DD20A9F706C080E290E0B3
:102B6000B3010E941F18EA94EE20C1F743CEF3018F
:102B700066817781CB012B96E2E10C94B312A9E038
:102B8000B0E0E5ECF5E10C949B126A01122FA02E47
:102B9000BE2C2BE3201718F42CE3922E02C0902EAB
:102BA0009394AE014F5F5F4F27E0092D0E942117DC
:102BB000BC018981E82EFF24C701897090700197BC
:102BC00011F4ADE209C0B1FE02C0ABE205C0B0FC39
:102BD00002C0A0E001C0A0E2E3FE3BC0AA2311F4C2
:102BE00023E001C024E0211710F020E002C0121BF6
:102BF000212FEB2CB4FE02C0322F0AC0F601322F77
:102C000080E202C0819331503323E1F7C20ED11C20
:102C1000AA2319F0F601A1936F01F6013196E2FEA5
:102C200005C09EE4D6019C9381E404C09EE6D601D3
:102C30009C9381E611968C9391833296DF01832FCA
:102C400090E202C09D9381508823E1F7E30FF11DCC
:102C500040C0E2FE42C0AA2311F423E001C024E0F8
:102C6000211710F020E002C0121B212FEB2CB4FE24
:102C700002C0922F0AC0F601922F80E202C0819317
:102C800091509923E1F7C20ED11CAA2319F0F60145
:102C9000A1936F01F6013196E2FE08C089E4D601E6
:102CA0008C938EE411968C9386E407C089E6D60156
:102CB0008C938EE611968C9386E681833296DF01A3
:102CC000892F20E202C02D9381508823E1F7E90F7C
:102CD000F11D10822EEF3FEFAFC0161617061CF045
:102CE00041E050E003C0AB014F5F5F4FAA2019F4F1
:102CF00080E090E003C08A2D90E0019620E030E073
:102D0000AA2311F021E030E0240F351F280F391FCE
:102D1000812F90E02817390714F020E002C0121B21
:102D2000212F4B2D50E0CA0180719070B4FC0DC072
:102D3000B3FC0BC0F601322F40E202C04193315088
:102D40003323E1F7C20ED11C01C0322FAA2319F0A0
:102D5000F601A1936F01892B11F0132F0AC0F60120
:102D6000132F80E302C0819311501123E1F7C30EAA
:102D7000D11C092D060FBA8090E1892E912C8E204E
:102D80009F20E4FE04C0F1E3BF1609F401501016C1
:102D900014F001E003C0093008F008E09B0177FF60
:102DA00002C020E030E0CB010196821B930BFE01B4
:102DB0003196E80FF91F8EE2F82E3B01601A710878
:102DC0008A2D90E044275527481B590B8FEF2F3F42
:102DD000380719F4D601FD926D01621773072CF0C4
:102DE0006216730614F4808101C080E321503040E4
:102DF00031962417350724F0D6018D936D01E6CF67
:102E00002617370749F4B5E3BB1528F0BB1621F4A4
:102E10008114910409F481E3F6018193D601812F95
:102E200090E202C09C93815011968823D9F7E10F5C
:102E3000F11D108220E030E0C9012996EEE00C94EB
:102E4000B712283008F027E03327DA01990F311D37
:102E500087FD916000966105710539F432602E5F3F
:102E60003D9330E32A95E1F708959F3F30F0803895
:102E70007105610509F03C5F3C5F3D93913008F0BE
:102E80008068911DDF93CF931F930F93FF92EF9272
:102E9000192F987F9695E92F96959695E90FFF271C
:102EA000EA5FFE4F99273327EE24FF24A701E701AD
:102EB00005900894079428F4360FE71EF81E491F62
:102EC000511D660F771F881F991F0694A1F7059063
:102ED000079428F4E70EF81E491F561FC11D770FEF
:102EE000881F991F661F0694A1F70590079428F480
:102EF000F80E491F561FC71FD11D880F991F661F47
:102F0000771F0694A1F70590079420F4490F561FE8
:102F1000C71FD81F990F661F771F881F0694A9F730
:102F200084911095177041F0D695C79557954795A0
:102F3000F794E7941A95C1F7ECEAF0E068941590DD
:102F4000159135916591959105907FE27395E11802
:102F5000F10A430B560BC90BD009C0F7E10CF11E67
:102F6000431F561FC91FD01D7EF4703311F48A957C
:102F7000E6CFE894015030F0080F0AF4002702175A
:102F800008F4202F2395022F7A3328F079E37D93DC
:102F90002A95E9F710C07D932A9589F606949795AE
:102FA0006795379517951794E118F10A430B560B5F
:102FB000C90BD00998F023957E9173957A3308F068
:102FC00070E37C932013B8F77E9170617D9330F0AD
:102FD000839571E37D9370E32A95E1F71124EF90D7
:102FE000FF900F911F91CF91DF91992787FD9095C9
:102FF0000895FC010590615070400110D8F780954C
:1030000090958E0F9F1F0895FC01615070400190B4
:103010000110D8F7809590958E0F9F1F0895DC01C1
:10302000FC01672F71917723E1F7329704C07C91FF
:103030006D9370836291AE17BF07C8F308950F9325
:103040001F93CF93DF938C01EB018B8181FF1BC01A
:1030500082FF0DC02E813F818C819D812817390709
:1030600064F4E881F9810193F983E88306C0E88577
:10307000F985802F0995892B31F48E819F810196E6
:103080009F838E8302C00FEF1FEFC801DF91CF91A6
:103090001F910F910895FA01AA27283051F120318C
:1030A00081F1E8946F936E7F6E5F7F4F8F4F9F4FDC
:1030B000AF4FB1E03ED0B4E03CD0670F781F891F1E
:1030C0009A1FA11D680F791F8A1F911DA11D6A0FEC
:1030D000711D811D911DA11D20D009F468943F919F
:1030E0002AE0269F11243019305D3193DEF6CF019E
:1030F0000895462F4770405D4193B3E00FD0C9F764
:10310000F6CF462F4F70405D4A3318F0495D31FDD0
:103110004052419302D0A9F7EACFB4E0A695979523
:10312000879577956795BA95C9F7009761057105F9
:1031300008959B01AC010A2E069457954795379543
:103140002795BA95C9F7620F731F841F951FA01D9D
:103150000895AA1BBB1B51E107C0AA1FBB1FA617DE
:10316000B70710F0A61BB70B881F991F5A95A9F730
:0E31700080959095BC01CD010895F894FFCF95
:10317E0000253032643B253032643B252D313073CF
:10318E00003B0057524F4E475F56414C00630000C4
:10319E0000404B01E2C04B0000D0FCBC029900394C
:1031AE0041D99E860B24027FA6000000000000007D
:1031BE000000000000000000000000000000000001
:1031CE00000012730036B48000412008048120CF25
:1031DE00F7FEFFFFFFFFFFFF536D69773200496E69
:1031EE0069742052464D37300045525220696E693F
:1031FE00742052464D37300052464D373020707293
:10320E006573656E740052464D3730206E6F7420B4
:10321E0070726573656E740031312E3031004F4B14
:10322E00004552524F52004E4F4E4500256420200D
:10323E00423A20256400505243563A2025730059D5
:10324E00455359455300256420256420252E35739A
:10325E000057414954000200010002000100010024
:10326E0032003300000000000000000000000000EB
:10327E000000000000000000000000000000000040
:10328E000000000052464D3A202573000000000059
:10329E0000000000004E6F736E613A20257300002F
:1032AE000000000000004F6462696F723A202573BF
:1032BE000000000000000000000000000000000000
:1032CE00000000000000000052464D3A2025730019
:1032DE000000000000000000004E6F736E613A2087
:1032EE00257300000000000000004F6462696F72D9
:1032FE003A202573000000000000000000000000CE
:10330E0000000000000000000000000000000000AF
:10331E00000000000000000000000000000000009F
:10332E00000000000000000000000000456B72610C
:10333E006E204C657779000000000000002D000023
:10334E0000000000000000000000000000002D0042
:10335E000000000000000000000000000000002D32
:10336E00000000000000000000000000000000004F
:10337E0054656E3A2020200000000000000000007E
:10338E0000506965633A20202020000000000000F4
:10339E00000047727A656A3A2000000000000000C3
:1033AE0000000050727A796369736B3A20202020F6
:1033BE000000000054656E3A202020202025730066
:1033CE000000000000506965633A2025730000007C
:1033DE0000000000000047727A656A3A2020202023
:1033EE002573000000000050727A796369736B3A9E
:1033FE00202020202573000001456B72616E205045
:10340E00726177790000000000002D0000000000BE
:10341E0000000000000000000000002D0000000071
:10342E000000000000000000000000002D00000061
:10343E00000000000000000000000000000000007E
:10344E000000000000000102020303030304040451
:10345E000404040404050505050505050505050513
:10346E0005050505050606060606060606060606F3
:10347E0006060606060606060606060606060606DE
:10348E0006060606060707070707070707070707C3
:10349E0007070707070707070707070707070707AE
:1034AE00070707070707070707070707070707079E
:1034BE00070707070707070707070707070707078E
:1034CE000707070707080808080808080808080873
:1034DE00080808080808080808080808080808085E
:1034EE00080808080808080808080808080808084E
:1034FE00080808080808080808080808080808083E
:10350E00080808080808080808080808080808082D
:10351E00080808080808080808080808080808081D
:10352E00080808080808080808080808080808080D
:10353E0008080808080808080808080808080808FD
:06354E000808080808004F
:00000001FF
